{
	"data": {
		"bytecode": {
			"linkReferences": {},
			"object": "6080604052348015600e575f80fd5b506113b08061001c5f395ff3fe608060405234801561000f575f80fd5b506004361061004a575f3560e01c80636ac9c9191461004e578063a4e218fd1461006a578063dcdc3d7b146100a1578063ff4dcdc9146100bd575b5f80fd5b610068600480360381019061006391906109f9565b6100d9565b005b610084600480360381019061007f91906109f9565b6101ed565b604051610098989796959493929190610ad2565b60405180910390f35b6100bb60048036038101906100b69190610b9b565b610597565b005b6100d760048036038101906100d29190610cc4565b610716565b005b5f80826040516100e99190610e01565b908152602001604051809103902090505f81600501540361013f576040517f08c379a000000000000000000000000000000000000000000000000000000000815260040161013690610e61565b60405180910390fd5b62278d0081600601546101529190610eac565b4211610193576040517f08c379a000000000000000000000000000000000000000000000000000000000815260040161018a90610f29565b60405180910390fd5b5f6303c26700426101a49190610f47565b90508082600601819055507fdd3f82854ee6042327267de2e60113f3c686a7db99ada1a8936a2a329317b9be83826040516101e0929190610f7a565b60405180910390a1505050565b60608060608060605f805f805f8a6040516102089190610e01565b90815260200160405180910390206040518060e00160405290815f8201805461023090610fd5565b80601f016020809104026020016040519081016040528092919081815260200182805461025c90610fd5565b80156102a75780601f1061027e576101008083540402835291602001916102a7565b820191905f5260205f20905b81548152906001019060200180831161028a57829003601f168201915b505050505081526020016001820180546102c090610fd5565b80601f01602080910402602001604051908101604052809291908181526020018280546102ec90610fd5565b80156103375780601f1061030e57610100808354040283529160200191610337565b820191905f5260205f20905b81548152906001019060200180831161031a57829003601f168201915b5050505050815260200160028201805461035090610fd5565b80601f016020809104026020016040519081016040528092919081815260200182805461037c90610fd5565b80156103c75780601f1061039e576101008083540402835291602001916103c7565b820191905f5260205f20905b8154815290600101906020018083116103aa57829003601f168201915b505050505081526020016003820180546103e090610fd5565b80601f016020809104026020016040519081016040528092919081815260200182805461040c90610fd5565b80156104575780601f1061042e57610100808354040283529160200191610457565b820191905f5260205f20905b81548152906001019060200180831161043a57829003601f168201915b5050505050815260200160048201805461047090610fd5565b80601f016020809104026020016040519081016040528092919081815260200182805461049c90610fd5565b80156104e75780601f106104be576101008083540402835291602001916104e7565b820191905f5260205f20905b8154815290600101906020018083116104ca57829003601f168201915b505050505081526020016005820154815260200160068201548152505090505f8160a001510361054c576040517f08c379a000000000000000000000000000000000000000000000000000000000815260040161054390610e61565b60405180910390fd5b5f8160c001514211159050815f015182602001518360400151846060015185608001518660a001518760c0015187995099509950995099509950995099505050919395975091939597565b5f80886040516105a79190610e01565b908152602001604051809103902060050154146105f9576040517f08c379a00000000000000000000000000000000000000000000000000000000081526004016105f090611075565b60405180910390fd5b6040518060e00160405280878152602001868152602001858152602001848152602001888152602001838152602001828152505f8860405161063b9190610e01565b90815260200160405180910390205f820151815f01908161065c9190611230565b5060208201518160010190816106729190611230565b5060408201518160020190816106889190611230565b50606082015181600301908161069e9190611230565b5060808201518160040190816106b49190611230565b5060a0820151816005015560c082015181600601559050507f257fbab8cb3420ea3d90745f33e021aab3e5bdae2aaae4d8fe418268e91b889d878787878686604051610705969594939291906112ff565b60405180910390a150505050505050565b5f80866040516107269190610e01565b90815260200160405180910390206005015414610778576040517f08c379a000000000000000000000000000000000000000000000000000000000815260040161076f90611075565b60405180910390fd5b5f4290505f6303c267008261078d9190610f47565b90506040518060e00160405280878152602001868152602001858152602001848152602001888152602001838152602001828152505f886040516107d19190610e01565b90815260200160405180910390205f820151815f0190816107f29190611230565b5060208201518160010190816108089190611230565b50604082015181600201908161081e9190611230565b5060608201518160030190816108349190611230565b50608082015181600401908161084a9190611230565b5060a0820151816005015560c082015181600601559050507f257fbab8cb3420ea3d90745f33e021aab3e5bdae2aaae4d8fe418268e91b889d87878787868660405161089b969594939291906112ff565b60405180910390a150505050505050565b5f604051905090565b5f80fd5b5f80fd5b5f80fd5b5f80fd5b5f601f19601f8301169050919050565b7f4e487b71000000000000000000000000000000000000000000000000000000005f52604160045260245ffd5b61090b826108c5565b810181811067ffffffffffffffff8211171561092a576109296108d5565b5b80604052505050565b5f61093c6108ac565b90506109488282610902565b919050565b5f67ffffffffffffffff821115610967576109666108d5565b5b610970826108c5565b9050602081019050919050565b828183375f83830152505050565b5f61099d6109988461094d565b610933565b9050828152602081018484840111156109b9576109b86108c1565b5b6109c484828561097d565b509392505050565b5f82601f8301126109e0576109df6108bd565b5b81356109f084826020860161098b565b91505092915050565b5f60208284031215610a0e57610a0d6108b5565b5b5f82013567ffffffffffffffff811115610a2b57610a2a6108b9565b5b610a37848285016109cc565b91505092915050565b5f81519050919050565b5f82825260208201905092915050565b8281835e5f83830152505050565b5f610a7282610a40565b610a7c8185610a4a565b9350610a8c818560208601610a5a565b610a95816108c5565b840191505092915050565b5f819050919050565b610ab281610aa0565b82525050565b5f8115159050919050565b610acc81610ab8565b82525050565b5f610100820190508181035f830152610aeb818b610a68565b90508181036020830152610aff818a610a68565b90508181036040830152610b138189610a68565b90508181036060830152610b278188610a68565b90508181036080830152610b3b8187610a68565b9050610b4a60a0830186610aa9565b610b5760c0830185610aa9565b610b6460e0830184610ac3565b9998505050505050505050565b610b7a81610aa0565b8114610b84575f80fd5b50565b5f81359050610b9581610b71565b92915050565b5f805f805f805f60e0888a031215610bb657610bb56108b5565b5b5f88013567ffffffffffffffff811115610bd357610bd26108b9565b5b610bdf8a828b016109cc565b975050602088013567ffffffffffffffff811115610c0057610bff6108b9565b5b610c0c8a828b016109cc565b965050604088013567ffffffffffffffff811115610c2d57610c2c6108b9565b5b610c398a828b016109cc565b955050606088013567ffffffffffffffff811115610c5a57610c596108b9565b5b610c668a828b016109cc565b945050608088013567ffffffffffffffff811115610c8757610c866108b9565b5b610c938a828b016109cc565b93505060a0610ca48a828b01610b87565b92505060c0610cb58a828b01610b87565b91505092959891949750929550565b5f805f805f60a08688031215610cdd57610cdc6108b5565b5b5f86013567ffffffffffffffff811115610cfa57610cf96108b9565b5b610d06888289016109cc565b955050602086013567ffffffffffffffff811115610d2757610d266108b9565b5b610d33888289016109cc565b945050604086013567ffffffffffffffff811115610d5457610d536108b9565b5b610d60888289016109cc565b935050606086013567ffffffffffffffff811115610d8157610d806108b9565b5b610d8d888289016109cc565b925050608086013567ffffffffffffffff811115610dae57610dad6108b9565b5b610dba888289016109cc565b9150509295509295909350565b5f81905092915050565b5f610ddb82610a40565b610de58185610dc7565b9350610df5818560208601610a5a565b80840191505092915050565b5f610e0c8284610dd1565b915081905092915050565b7f4c6963656e7365206e6f7420666f756e640000000000000000000000000000005f82015250565b5f610e4b601183610a4a565b9150610e5682610e17565b602082019050919050565b5f6020820190508181035f830152610e7881610e3f565b9050919050565b7f4e487b71000000000000000000000000000000000000000000000000000000005f52601160045260245ffd5b5f610eb682610aa0565b9150610ec183610aa0565b9250828203905081811115610ed957610ed8610e7f565b5b92915050565b7f4c6963656e73652072656e6577616c206e6f742079657420616c6c6f776564005f82015250565b5f610f13601f83610a4a565b9150610f1e82610edf565b602082019050919050565b5f6020820190508181035f830152610f4081610f07565b9050919050565b5f610f5182610aa0565b9150610f5c83610aa0565b9250828201905080821115610f7457610f73610e7f565b5b92915050565b5f6040820190508181035f830152610f928185610a68565b9050610fa16020830184610aa9565b9392505050565b7f4e487b71000000000000000000000000000000000000000000000000000000005f52602260045260245ffd5b5f6002820490506001821680610fec57607f821691505b602082108103610fff57610ffe610fa8565b5b50919050565b7f4c6963656e736520616c72656164792065786973747320666f722074686973205f8201527f43726564656e7469616c20494400000000000000000000000000000000000000602082015250565b5f61105f602d83610a4a565b915061106a82611005565b604082019050919050565b5f6020820190508181035f83015261108c81611053565b9050919050565b5f819050815f5260205f209050919050565b5f6020601f8301049050919050565b5f82821b905092915050565b5f600883026110ef7fffffffffffffffffffffffffffffffffffffffffffffffffffffffffffffffff826110b4565b6110f986836110b4565b95508019841693508086168417925050509392505050565b5f819050919050565b5f61113461112f61112a84610aa0565b611111565b610aa0565b9050919050565b5f819050919050565b61114d8361111a565b6111616111598261113b565b8484546110c0565b825550505050565b5f90565b611175611169565b611180818484611144565b505050565b5b818110156111a3576111985f8261116d565b600181019050611186565b5050565b601f8211156111e8576111b981611093565b6111c2846110a5565b810160208510156111d1578190505b6111e56111dd856110a5565b830182611185565b50505b505050565b5f82821c905092915050565b5f6112085f19846008026111ed565b1980831691505092915050565b5f61122083836111f9565b9150826002028217905092915050565b61123982610a40565b67ffffffffffffffff811115611252576112516108d5565b5b61125c8254610fd5565b6112678282856111a7565b5f60209050601f831160018114611298575f8415611286578287015190505b6112908582611215565b8655506112f7565b601f1984166112a686611093565b5f5b828110156112cd578489015182556001820191506020850194506020810190506112a8565b868310156112ea57848901516112e6601f8916826111f9565b8355505b6001600288020188555050505b505050505050565b5f60c0820190508181035f8301526113178189610a68565b9050818103602083015261132b8188610a68565b9050818103604083015261133f8187610a68565b905081810360608301526113538186610a68565b90506113626080830185610aa9565b61136f60a0830184610aa9565b97965050505050505056fea2646970667358221220d367dc4ae793b0682b69c8250195c55bd77b1fc97cf7edcc85680b1d53b94ad064736f6c634300081a0033",
			"opcodes": "PUSH1 0x80 PUSH1 0x40 MSTORE CALLVALUE DUP1 ISZERO PUSH1 0xE JUMPI PUSH0 DUP1 REVERT JUMPDEST POP PUSH2 0x13B0 DUP1 PUSH2 0x1C PUSH0 CODECOPY PUSH0 RETURN INVALID PUSH1 0x80 PUSH1 0x40 MSTORE CALLVALUE DUP1 ISZERO PUSH2 0xF JUMPI PUSH0 DUP1 REVERT JUMPDEST POP PUSH1 0x4 CALLDATASIZE LT PUSH2 0x4A JUMPI PUSH0 CALLDATALOAD PUSH1 0xE0 SHR DUP1 PUSH4 0x6AC9C919 EQ PUSH2 0x4E JUMPI DUP1 PUSH4 0xA4E218FD EQ PUSH2 0x6A JUMPI DUP1 PUSH4 0xDCDC3D7B EQ PUSH2 0xA1 JUMPI DUP1 PUSH4 0xFF4DCDC9 EQ PUSH2 0xBD JUMPI JUMPDEST PUSH0 DUP1 REVERT JUMPDEST PUSH2 0x68 PUSH1 0x4 DUP1 CALLDATASIZE SUB DUP2 ADD SWAP1 PUSH2 0x63 SWAP2 SWAP1 PUSH2 0x9F9 JUMP JUMPDEST PUSH2 0xD9 JUMP JUMPDEST STOP JUMPDEST PUSH2 0x84 PUSH1 0x4 DUP1 CALLDATASIZE SUB DUP2 ADD SWAP1 PUSH2 0x7F SWAP2 SWAP1 PUSH2 0x9F9 JUMP JUMPDEST PUSH2 0x1ED JUMP JUMPDEST PUSH1 0x40 MLOAD PUSH2 0x98 SWAP9 SWAP8 SWAP7 SWAP6 SWAP5 SWAP4 SWAP3 SWAP2 SWAP1 PUSH2 0xAD2 JUMP JUMPDEST PUSH1 0x40 MLOAD DUP1 SWAP2 SUB SWAP1 RETURN JUMPDEST PUSH2 0xBB PUSH1 0x4 DUP1 CALLDATASIZE SUB DUP2 ADD SWAP1 PUSH2 0xB6 SWAP2 SWAP1 PUSH2 0xB9B JUMP JUMPDEST PUSH2 0x597 JUMP JUMPDEST STOP JUMPDEST PUSH2 0xD7 PUSH1 0x4 DUP1 CALLDATASIZE SUB DUP2 ADD SWAP1 PUSH2 0xD2 SWAP2 SWAP1 PUSH2 0xCC4 JUMP JUMPDEST PUSH2 0x716 JUMP JUMPDEST STOP JUMPDEST PUSH0 DUP1 DUP3 PUSH1 0x40 MLOAD PUSH2 0xE9 SWAP2 SWAP1 PUSH2 0xE01 JUMP JUMPDEST SWAP1 DUP2 MSTORE PUSH1 0x20 ADD PUSH1 0x40 MLOAD DUP1 SWAP2 SUB SWAP1 KECCAK256 SWAP1 POP PUSH0 DUP2 PUSH1 0x5 ADD SLOAD SUB PUSH2 0x13F JUMPI PUSH1 0x40 MLOAD PUSH32 0x8C379A000000000000000000000000000000000000000000000000000000000 DUP2 MSTORE PUSH1 0x4 ADD PUSH2 0x136 SWAP1 PUSH2 0xE61 JUMP JUMPDEST PUSH1 0x40 MLOAD DUP1 SWAP2 SUB SWAP1 REVERT JUMPDEST PUSH3 0x278D00 DUP2 PUSH1 0x6 ADD SLOAD PUSH2 0x152 SWAP2 SWAP1 PUSH2 0xEAC JUMP JUMPDEST TIMESTAMP GT PUSH2 0x193 JUMPI PUSH1 0x40 MLOAD PUSH32 0x8C379A000000000000000000000000000000000000000000000000000000000 DUP2 MSTORE PUSH1 0x4 ADD PUSH2 0x18A SWAP1 PUSH2 0xF29 JUMP JUMPDEST PUSH1 0x40 MLOAD DUP1 SWAP2 SUB SWAP1 REVERT JUMPDEST PUSH0 PUSH4 0x3C26700 TIMESTAMP PUSH2 0x1A4 SWAP2 SWAP1 PUSH2 0xF47 JUMP JUMPDEST SWAP1 POP DUP1 DUP3 PUSH1 0x6 ADD DUP2 SWAP1 SSTORE POP PUSH32 0xDD3F82854EE6042327267DE2E60113F3C686A7DB99ADA1A8936A2A329317B9BE DUP4 DUP3 PUSH1 0x40 MLOAD PUSH2 0x1E0 SWAP3 SWAP2 SWAP1 PUSH2 0xF7A JUMP JUMPDEST PUSH1 0x40 MLOAD DUP1 SWAP2 SUB SWAP1 LOG1 POP POP POP JUMP JUMPDEST PUSH1 0x60 DUP1 PUSH1 0x60 DUP1 PUSH1 0x60 PUSH0 DUP1 PUSH0 DUP1 PUSH0 DUP11 PUSH1 0x40 MLOAD PUSH2 0x208 SWAP2 SWAP1 PUSH2 0xE01 JUMP JUMPDEST SWAP1 DUP2 MSTORE PUSH1 0x20 ADD PUSH1 0x40 MLOAD DUP1 SWAP2 SUB SWAP1 KECCAK256 PUSH1 0x40 MLOAD DUP1 PUSH1 0xE0 ADD PUSH1 0x40 MSTORE SWAP1 DUP2 PUSH0 DUP3 ADD DUP1 SLOAD PUSH2 0x230 SWAP1 PUSH2 0xFD5 JUMP JUMPDEST DUP1 PUSH1 0x1F ADD PUSH1 0x20 DUP1 SWAP2 DIV MUL PUSH1 0x20 ADD PUSH1 0x40 MLOAD SWAP1 DUP2 ADD PUSH1 0x40 MSTORE DUP1 SWAP3 SWAP2 SWAP1 DUP2 DUP2 MSTORE PUSH1 0x20 ADD DUP3 DUP1 SLOAD PUSH2 0x25C SWAP1 PUSH2 0xFD5 JUMP JUMPDEST DUP1 ISZERO PUSH2 0x2A7 JUMPI DUP1 PUSH1 0x1F LT PUSH2 0x27E JUMPI PUSH2 0x100 DUP1 DUP4 SLOAD DIV MUL DUP4 MSTORE SWAP2 PUSH1 0x20 ADD SWAP2 PUSH2 0x2A7 JUMP JUMPDEST DUP3 ADD SWAP2 SWAP1 PUSH0 MSTORE PUSH1 0x20 PUSH0 KECCAK256 SWAP1 JUMPDEST DUP2 SLOAD DUP2 MSTORE SWAP1 PUSH1 0x1 ADD SWAP1 PUSH1 0x20 ADD DUP1 DUP4 GT PUSH2 0x28A JUMPI DUP3 SWAP1 SUB PUSH1 0x1F AND DUP3 ADD SWAP2 JUMPDEST POP POP POP POP POP DUP2 MSTORE PUSH1 0x20 ADD PUSH1 0x1 DUP3 ADD DUP1 SLOAD PUSH2 0x2C0 SWAP1 PUSH2 0xFD5 JUMP JUMPDEST DUP1 PUSH1 0x1F ADD PUSH1 0x20 DUP1 SWAP2 DIV MUL PUSH1 0x20 ADD PUSH1 0x40 MLOAD SWAP1 DUP2 ADD PUSH1 0x40 MSTORE DUP1 SWAP3 SWAP2 SWAP1 DUP2 DUP2 MSTORE PUSH1 0x20 ADD DUP3 DUP1 SLOAD PUSH2 0x2EC SWAP1 PUSH2 0xFD5 JUMP JUMPDEST DUP1 ISZERO PUSH2 0x337 JUMPI DUP1 PUSH1 0x1F LT PUSH2 0x30E JUMPI PUSH2 0x100 DUP1 DUP4 SLOAD DIV MUL DUP4 MSTORE SWAP2 PUSH1 0x20 ADD SWAP2 PUSH2 0x337 JUMP JUMPDEST DUP3 ADD SWAP2 SWAP1 PUSH0 MSTORE PUSH1 0x20 PUSH0 KECCAK256 SWAP1 JUMPDEST DUP2 SLOAD DUP2 MSTORE SWAP1 PUSH1 0x1 ADD SWAP1 PUSH1 0x20 ADD DUP1 DUP4 GT PUSH2 0x31A JUMPI DUP3 SWAP1 SUB PUSH1 0x1F AND DUP3 ADD SWAP2 JUMPDEST POP POP POP POP POP DUP2 MSTORE PUSH1 0x20 ADD PUSH1 0x2 DUP3 ADD DUP1 SLOAD PUSH2 0x350 SWAP1 PUSH2 0xFD5 JUMP JUMPDEST DUP1 PUSH1 0x1F ADD PUSH1 0x20 DUP1 SWAP2 DIV MUL PUSH1 0x20 ADD PUSH1 0x40 MLOAD SWAP1 DUP2 ADD PUSH1 0x40 MSTORE DUP1 SWAP3 SWAP2 SWAP1 DUP2 DUP2 MSTORE PUSH1 0x20 ADD DUP3 DUP1 SLOAD PUSH2 0x37C SWAP1 PUSH2 0xFD5 JUMP JUMPDEST DUP1 ISZERO PUSH2 0x3C7 JUMPI DUP1 PUSH1 0x1F LT PUSH2 0x39E JUMPI PUSH2 0x100 DUP1 DUP4 SLOAD DIV MUL DUP4 MSTORE SWAP2 PUSH1 0x20 ADD SWAP2 PUSH2 0x3C7 JUMP JUMPDEST DUP3 ADD SWAP2 SWAP1 PUSH0 MSTORE PUSH1 0x20 PUSH0 KECCAK256 SWAP1 JUMPDEST DUP2 SLOAD DUP2 MSTORE SWAP1 PUSH1 0x1 ADD SWAP1 PUSH1 0x20 ADD DUP1 DUP4 GT PUSH2 0x3AA JUMPI DUP3 SWAP1 SUB PUSH1 0x1F AND DUP3 ADD SWAP2 JUMPDEST POP POP POP POP POP DUP2 MSTORE PUSH1 0x20 ADD PUSH1 0x3 DUP3 ADD DUP1 SLOAD PUSH2 0x3E0 SWAP1 PUSH2 0xFD5 JUMP JUMPDEST DUP1 PUSH1 0x1F ADD PUSH1 0x20 DUP1 SWAP2 DIV MUL PUSH1 0x20 ADD PUSH1 0x40 MLOAD SWAP1 DUP2 ADD PUSH1 0x40 MSTORE DUP1 SWAP3 SWAP2 SWAP1 DUP2 DUP2 MSTORE PUSH1 0x20 ADD DUP3 DUP1 SLOAD PUSH2 0x40C SWAP1 PUSH2 0xFD5 JUMP JUMPDEST DUP1 ISZERO PUSH2 0x457 JUMPI DUP1 PUSH1 0x1F LT PUSH2 0x42E JUMPI PUSH2 0x100 DUP1 DUP4 SLOAD DIV MUL DUP4 MSTORE SWAP2 PUSH1 0x20 ADD SWAP2 PUSH2 0x457 JUMP JUMPDEST DUP3 ADD SWAP2 SWAP1 PUSH0 MSTORE PUSH1 0x20 PUSH0 KECCAK256 SWAP1 JUMPDEST DUP2 SLOAD DUP2 MSTORE SWAP1 PUSH1 0x1 ADD SWAP1 PUSH1 0x20 ADD DUP1 DUP4 GT PUSH2 0x43A JUMPI DUP3 SWAP1 SUB PUSH1 0x1F AND DUP3 ADD SWAP2 JUMPDEST POP POP POP POP POP DUP2 MSTORE PUSH1 0x20 ADD PUSH1 0x4 DUP3 ADD DUP1 SLOAD PUSH2 0x470 SWAP1 PUSH2 0xFD5 JUMP JUMPDEST DUP1 PUSH1 0x1F ADD PUSH1 0x20 DUP1 SWAP2 DIV MUL PUSH1 0x20 ADD PUSH1 0x40 MLOAD SWAP1 DUP2 ADD PUSH1 0x40 MSTORE DUP1 SWAP3 SWAP2 SWAP1 DUP2 DUP2 MSTORE PUSH1 0x20 ADD DUP3 DUP1 SLOAD PUSH2 0x49C SWAP1 PUSH2 0xFD5 JUMP JUMPDEST DUP1 ISZERO PUSH2 0x4E7 JUMPI DUP1 PUSH1 0x1F LT PUSH2 0x4BE JUMPI PUSH2 0x100 DUP1 DUP4 SLOAD DIV MUL DUP4 MSTORE SWAP2 PUSH1 0x20 ADD SWAP2 PUSH2 0x4E7 JUMP JUMPDEST DUP3 ADD SWAP2 SWAP1 PUSH0 MSTORE PUSH1 0x20 PUSH0 KECCAK256 SWAP1 JUMPDEST DUP2 SLOAD DUP2 MSTORE SWAP1 PUSH1 0x1 ADD SWAP1 PUSH1 0x20 ADD DUP1 DUP4 GT PUSH2 0x4CA JUMPI DUP3 SWAP1 SUB PUSH1 0x1F AND DUP3 ADD SWAP2 JUMPDEST POP POP POP POP POP DUP2 MSTORE PUSH1 0x20 ADD PUSH1 0x5 DUP3 ADD SLOAD DUP2 MSTORE PUSH1 0x20 ADD PUSH1 0x6 DUP3 ADD SLOAD DUP2 MSTORE POP POP SWAP1 POP PUSH0 DUP2 PUSH1 0xA0 ADD MLOAD SUB PUSH2 0x54C JUMPI PUSH1 0x40 MLOAD PUSH32 0x8C379A000000000000000000000000000000000000000000000000000000000 DUP2 MSTORE PUSH1 0x4 ADD PUSH2 0x543 SWAP1 PUSH2 0xE61 JUMP JUMPDEST PUSH1 0x40 MLOAD DUP1 SWAP2 SUB SWAP1 REVERT JUMPDEST PUSH0 DUP2 PUSH1 0xC0 ADD MLOAD TIMESTAMP GT ISZERO SWAP1 POP DUP2 PUSH0 ADD MLOAD DUP3 PUSH1 0x20 ADD MLOAD DUP4 PUSH1 0x40 ADD MLOAD DUP5 PUSH1 0x60 ADD MLOAD DUP6 PUSH1 0x80 ADD MLOAD DUP7 PUSH1 0xA0 ADD MLOAD DUP8 PUSH1 0xC0 ADD MLOAD DUP8 SWAP10 POP SWAP10 POP SWAP10 POP SWAP10 POP SWAP10 POP SWAP10 POP SWAP10 POP SWAP10 POP POP POP SWAP2 SWAP4 SWAP6 SWAP8 POP SWAP2 SWAP4 SWAP6 SWAP8 JUMP JUMPDEST PUSH0 DUP1 DUP9 PUSH1 0x40 MLOAD PUSH2 0x5A7 SWAP2 SWAP1 PUSH2 0xE01 JUMP JUMPDEST SWAP1 DUP2 MSTORE PUSH1 0x20 ADD PUSH1 0x40 MLOAD DUP1 SWAP2 SUB SWAP1 KECCAK256 PUSH1 0x5 ADD SLOAD EQ PUSH2 0x5F9 JUMPI PUSH1 0x40 MLOAD PUSH32 0x8C379A000000000000000000000000000000000000000000000000000000000 DUP2 MSTORE PUSH1 0x4 ADD PUSH2 0x5F0 SWAP1 PUSH2 0x1075 JUMP JUMPDEST PUSH1 0x40 MLOAD DUP1 SWAP2 SUB SWAP1 REVERT JUMPDEST PUSH1 0x40 MLOAD DUP1 PUSH1 0xE0 ADD PUSH1 0x40 MSTORE DUP1 DUP8 DUP2 MSTORE PUSH1 0x20 ADD DUP7 DUP2 MSTORE PUSH1 0x20 ADD DUP6 DUP2 MSTORE PUSH1 0x20 ADD DUP5 DUP2 MSTORE PUSH1 0x20 ADD DUP9 DUP2 MSTORE PUSH1 0x20 ADD DUP4 DUP2 MSTORE PUSH1 0x20 ADD DUP3 DUP2 MSTORE POP PUSH0 DUP9 PUSH1 0x40 MLOAD PUSH2 0x63B SWAP2 SWAP1 PUSH2 0xE01 JUMP JUMPDEST SWAP1 DUP2 MSTORE PUSH1 0x20 ADD PUSH1 0x40 MLOAD DUP1 SWAP2 SUB SWAP1 KECCAK256 PUSH0 DUP3 ADD MLOAD DUP2 PUSH0 ADD SWAP1 DUP2 PUSH2 0x65C SWAP2 SWAP1 PUSH2 0x1230 JUMP JUMPDEST POP PUSH1 0x20 DUP3 ADD MLOAD DUP2 PUSH1 0x1 ADD SWAP1 DUP2 PUSH2 0x672 SWAP2 SWAP1 PUSH2 0x1230 JUMP JUMPDEST POP PUSH1 0x40 DUP3 ADD MLOAD DUP2 PUSH1 0x2 ADD SWAP1 DUP2 PUSH2 0x688 SWAP2 SWAP1 PUSH2 0x1230 JUMP JUMPDEST POP PUSH1 0x60 DUP3 ADD MLOAD DUP2 PUSH1 0x3 ADD SWAP1 DUP2 PUSH2 0x69E SWAP2 SWAP1 PUSH2 0x1230 JUMP JUMPDEST POP PUSH1 0x80 DUP3 ADD MLOAD DUP2 PUSH1 0x4 ADD SWAP1 DUP2 PUSH2 0x6B4 SWAP2 SWAP1 PUSH2 0x1230 JUMP JUMPDEST POP PUSH1 0xA0 DUP3 ADD MLOAD DUP2 PUSH1 0x5 ADD SSTORE PUSH1 0xC0 DUP3 ADD MLOAD DUP2 PUSH1 0x6 ADD SSTORE SWAP1 POP POP PUSH32 0x257FBAB8CB3420EA3D90745F33E021AAB3E5BDAE2AAAE4D8FE418268E91B889D DUP8 DUP8 DUP8 DUP8 DUP7 DUP7 PUSH1 0x40 MLOAD PUSH2 0x705 SWAP7 SWAP6 SWAP5 SWAP4 SWAP3 SWAP2 SWAP1 PUSH2 0x12FF JUMP JUMPDEST PUSH1 0x40 MLOAD DUP1 SWAP2 SUB SWAP1 LOG1 POP POP POP POP POP POP POP JUMP JUMPDEST PUSH0 DUP1 DUP7 PUSH1 0x40 MLOAD PUSH2 0x726 SWAP2 SWAP1 PUSH2 0xE01 JUMP JUMPDEST SWAP1 DUP2 MSTORE PUSH1 0x20 ADD PUSH1 0x40 MLOAD DUP1 SWAP2 SUB SWAP1 KECCAK256 PUSH1 0x5 ADD SLOAD EQ PUSH2 0x778 JUMPI PUSH1 0x40 MLOAD PUSH32 0x8C379A000000000000000000000000000000000000000000000000000000000 DUP2 MSTORE PUSH1 0x4 ADD PUSH2 0x76F SWAP1 PUSH2 0x1075 JUMP JUMPDEST PUSH1 0x40 MLOAD DUP1 SWAP2 SUB SWAP1 REVERT JUMPDEST PUSH0 TIMESTAMP SWAP1 POP PUSH0 PUSH4 0x3C26700 DUP3 PUSH2 0x78D SWAP2 SWAP1 PUSH2 0xF47 JUMP JUMPDEST SWAP1 POP PUSH1 0x40 MLOAD DUP1 PUSH1 0xE0 ADD PUSH1 0x40 MSTORE DUP1 DUP8 DUP2 MSTORE PUSH1 0x20 ADD DUP7 DUP2 MSTORE PUSH1 0x20 ADD DUP6 DUP2 MSTORE PUSH1 0x20 ADD DUP5 DUP2 MSTORE PUSH1 0x20 ADD DUP9 DUP2 MSTORE PUSH1 0x20 ADD DUP4 DUP2 MSTORE PUSH1 0x20 ADD DUP3 DUP2 MSTORE POP PUSH0 DUP9 PUSH1 0x40 MLOAD PUSH2 0x7D1 SWAP2 SWAP1 PUSH2 0xE01 JUMP JUMPDEST SWAP1 DUP2 MSTORE PUSH1 0x20 ADD PUSH1 0x40 MLOAD DUP1 SWAP2 SUB SWAP1 KECCAK256 PUSH0 DUP3 ADD MLOAD DUP2 PUSH0 ADD SWAP1 DUP2 PUSH2 0x7F2 SWAP2 SWAP1 PUSH2 0x1230 JUMP JUMPDEST POP PUSH1 0x20 DUP3 ADD MLOAD DUP2 PUSH1 0x1 ADD SWAP1 DUP2 PUSH2 0x808 SWAP2 SWAP1 PUSH2 0x1230 JUMP JUMPDEST POP PUSH1 0x40 DUP3 ADD MLOAD DUP2 PUSH1 0x2 ADD SWAP1 DUP2 PUSH2 0x81E SWAP2 SWAP1 PUSH2 0x1230 JUMP JUMPDEST POP PUSH1 0x60 DUP3 ADD MLOAD DUP2 PUSH1 0x3 ADD SWAP1 DUP2 PUSH2 0x834 SWAP2 SWAP1 PUSH2 0x1230 JUMP JUMPDEST POP PUSH1 0x80 DUP3 ADD MLOAD DUP2 PUSH1 0x4 ADD SWAP1 DUP2 PUSH2 0x84A SWAP2 SWAP1 PUSH2 0x1230 JUMP JUMPDEST POP PUSH1 0xA0 DUP3 ADD MLOAD DUP2 PUSH1 0x5 ADD SSTORE PUSH1 0xC0 DUP3 ADD MLOAD DUP2 PUSH1 0x6 ADD SSTORE SWAP1 POP POP PUSH32 0x257FBAB8CB3420EA3D90745F33E021AAB3E5BDAE2AAAE4D8FE418268E91B889D DUP8 DUP8 DUP8 DUP8 DUP7 DUP7 PUSH1 0x40 MLOAD PUSH2 0x89B SWAP7 SWAP6 SWAP5 SWAP4 SWAP3 SWAP2 SWAP1 PUSH2 0x12FF JUMP JUMPDEST PUSH1 0x40 MLOAD DUP1 SWAP2 SUB SWAP1 LOG1 POP POP POP POP POP POP POP JUMP JUMPDEST PUSH0 PUSH1 0x40 MLOAD SWAP1 POP SWAP1 JUMP JUMPDEST PUSH0 DUP1 REVERT JUMPDEST PUSH0 DUP1 REVERT JUMPDEST PUSH0 DUP1 REVERT JUMPDEST PUSH0 DUP1 REVERT JUMPDEST PUSH0 PUSH1 0x1F NOT PUSH1 0x1F DUP4 ADD AND SWAP1 POP SWAP2 SWAP1 POP JUMP JUMPDEST PUSH32 0x4E487B7100000000000000000000000000000000000000000000000000000000 PUSH0 MSTORE PUSH1 0x41 PUSH1 0x4 MSTORE PUSH1 0x24 PUSH0 REVERT JUMPDEST PUSH2 0x90B DUP3 PUSH2 0x8C5 JUMP JUMPDEST DUP2 ADD DUP2 DUP2 LT PUSH8 0xFFFFFFFFFFFFFFFF DUP3 GT OR ISZERO PUSH2 0x92A JUMPI PUSH2 0x929 PUSH2 0x8D5 JUMP JUMPDEST JUMPDEST DUP1 PUSH1 0x40 MSTORE POP POP POP JUMP JUMPDEST PUSH0 PUSH2 0x93C PUSH2 0x8AC JUMP JUMPDEST SWAP1 POP PUSH2 0x948 DUP3 DUP3 PUSH2 0x902 JUMP JUMPDEST SWAP2 SWAP1 POP JUMP JUMPDEST PUSH0 PUSH8 0xFFFFFFFFFFFFFFFF DUP3 GT ISZERO PUSH2 0x967 JUMPI PUSH2 0x966 PUSH2 0x8D5 JUMP JUMPDEST JUMPDEST PUSH2 0x970 DUP3 PUSH2 0x8C5 JUMP JUMPDEST SWAP1 POP PUSH1 0x20 DUP2 ADD SWAP1 POP SWAP2 SWAP1 POP JUMP JUMPDEST DUP3 DUP2 DUP4 CALLDATACOPY PUSH0 DUP4 DUP4 ADD MSTORE POP POP POP JUMP JUMPDEST PUSH0 PUSH2 0x99D PUSH2 0x998 DUP5 PUSH2 0x94D JUMP JUMPDEST PUSH2 0x933 JUMP JUMPDEST SWAP1 POP DUP3 DUP2 MSTORE PUSH1 0x20 DUP2 ADD DUP5 DUP5 DUP5 ADD GT ISZERO PUSH2 0x9B9 JUMPI PUSH2 0x9B8 PUSH2 0x8C1 JUMP JUMPDEST JUMPDEST PUSH2 0x9C4 DUP5 DUP3 DUP6 PUSH2 0x97D JUMP JUMPDEST POP SWAP4 SWAP3 POP POP POP JUMP JUMPDEST PUSH0 DUP3 PUSH1 0x1F DUP4 ADD SLT PUSH2 0x9E0 JUMPI PUSH2 0x9DF PUSH2 0x8BD JUMP JUMPDEST JUMPDEST DUP2 CALLDATALOAD PUSH2 0x9F0 DUP5 DUP3 PUSH1 0x20 DUP7 ADD PUSH2 0x98B JUMP JUMPDEST SWAP2 POP POP SWAP3 SWAP2 POP POP JUMP JUMPDEST PUSH0 PUSH1 0x20 DUP3 DUP5 SUB SLT ISZERO PUSH2 0xA0E JUMPI PUSH2 0xA0D PUSH2 0x8B5 JUMP JUMPDEST JUMPDEST PUSH0 DUP3 ADD CALLDATALOAD PUSH8 0xFFFFFFFFFFFFFFFF DUP2 GT ISZERO PUSH2 0xA2B JUMPI PUSH2 0xA2A PUSH2 0x8B9 JUMP JUMPDEST JUMPDEST PUSH2 0xA37 DUP5 DUP3 DUP6 ADD PUSH2 0x9CC JUMP JUMPDEST SWAP2 POP POP SWAP3 SWAP2 POP POP JUMP JUMPDEST PUSH0 DUP2 MLOAD SWAP1 POP SWAP2 SWAP1 POP JUMP JUMPDEST PUSH0 DUP3 DUP3 MSTORE PUSH1 0x20 DUP3 ADD SWAP1 POP SWAP3 SWAP2 POP POP JUMP JUMPDEST DUP3 DUP2 DUP4 MCOPY PUSH0 DUP4 DUP4 ADD MSTORE POP POP POP JUMP JUMPDEST PUSH0 PUSH2 0xA72 DUP3 PUSH2 0xA40 JUMP JUMPDEST PUSH2 0xA7C DUP2 DUP6 PUSH2 0xA4A JUMP JUMPDEST SWAP4 POP PUSH2 0xA8C DUP2 DUP6 PUSH1 0x20 DUP7 ADD PUSH2 0xA5A JUMP JUMPDEST PUSH2 0xA95 DUP2 PUSH2 0x8C5 JUMP JUMPDEST DUP5 ADD SWAP2 POP POP SWAP3 SWAP2 POP POP JUMP JUMPDEST PUSH0 DUP2 SWAP1 POP SWAP2 SWAP1 POP JUMP JUMPDEST PUSH2 0xAB2 DUP2 PUSH2 0xAA0 JUMP JUMPDEST DUP3 MSTORE POP POP JUMP JUMPDEST PUSH0 DUP2 ISZERO ISZERO SWAP1 POP SWAP2 SWAP1 POP JUMP JUMPDEST PUSH2 0xACC DUP2 PUSH2 0xAB8 JUMP JUMPDEST DUP3 MSTORE POP POP JUMP JUMPDEST PUSH0 PUSH2 0x100 DUP3 ADD SWAP1 POP DUP2 DUP2 SUB PUSH0 DUP4 ADD MSTORE PUSH2 0xAEB DUP2 DUP12 PUSH2 0xA68 JUMP JUMPDEST SWAP1 POP DUP2 DUP2 SUB PUSH1 0x20 DUP4 ADD MSTORE PUSH2 0xAFF DUP2 DUP11 PUSH2 0xA68 JUMP JUMPDEST SWAP1 POP DUP2 DUP2 SUB PUSH1 0x40 DUP4 ADD MSTORE PUSH2 0xB13 DUP2 DUP10 PUSH2 0xA68 JUMP JUMPDEST SWAP1 POP DUP2 DUP2 SUB PUSH1 0x60 DUP4 ADD MSTORE PUSH2 0xB27 DUP2 DUP9 PUSH2 0xA68 JUMP JUMPDEST SWAP1 POP DUP2 DUP2 SUB PUSH1 0x80 DUP4 ADD MSTORE PUSH2 0xB3B DUP2 DUP8 PUSH2 0xA68 JUMP JUMPDEST SWAP1 POP PUSH2 0xB4A PUSH1 0xA0 DUP4 ADD DUP7 PUSH2 0xAA9 JUMP JUMPDEST PUSH2 0xB57 PUSH1 0xC0 DUP4 ADD DUP6 PUSH2 0xAA9 JUMP JUMPDEST PUSH2 0xB64 PUSH1 0xE0 DUP4 ADD DUP5 PUSH2 0xAC3 JUMP JUMPDEST SWAP10 SWAP9 POP POP POP POP POP POP POP POP POP JUMP JUMPDEST PUSH2 0xB7A DUP2 PUSH2 0xAA0 JUMP JUMPDEST DUP2 EQ PUSH2 0xB84 JUMPI PUSH0 DUP1 REVERT JUMPDEST POP JUMP JUMPDEST PUSH0 DUP2 CALLDATALOAD SWAP1 POP PUSH2 0xB95 DUP2 PUSH2 0xB71 JUMP JUMPDEST SWAP3 SWAP2 POP POP JUMP JUMPDEST PUSH0 DUP1 PUSH0 DUP1 PUSH0 DUP1 PUSH0 PUSH1 0xE0 DUP9 DUP11 SUB SLT ISZERO PUSH2 0xBB6 JUMPI PUSH2 0xBB5 PUSH2 0x8B5 JUMP JUMPDEST JUMPDEST PUSH0 DUP9 ADD CALLDATALOAD PUSH8 0xFFFFFFFFFFFFFFFF DUP2 GT ISZERO PUSH2 0xBD3 JUMPI PUSH2 0xBD2 PUSH2 0x8B9 JUMP JUMPDEST JUMPDEST PUSH2 0xBDF DUP11 DUP3 DUP12 ADD PUSH2 0x9CC JUMP JUMPDEST SWAP8 POP POP PUSH1 0x20 DUP9 ADD CALLDATALOAD PUSH8 0xFFFFFFFFFFFFFFFF DUP2 GT ISZERO PUSH2 0xC00 JUMPI PUSH2 0xBFF PUSH2 0x8B9 JUMP JUMPDEST JUMPDEST PUSH2 0xC0C DUP11 DUP3 DUP12 ADD PUSH2 0x9CC JUMP JUMPDEST SWAP7 POP POP PUSH1 0x40 DUP9 ADD CALLDATALOAD PUSH8 0xFFFFFFFFFFFFFFFF DUP2 GT ISZERO PUSH2 0xC2D JUMPI PUSH2 0xC2C PUSH2 0x8B9 JUMP JUMPDEST JUMPDEST PUSH2 0xC39 DUP11 DUP3 DUP12 ADD PUSH2 0x9CC JUMP JUMPDEST SWAP6 POP POP PUSH1 0x60 DUP9 ADD CALLDATALOAD PUSH8 0xFFFFFFFFFFFFFFFF DUP2 GT ISZERO PUSH2 0xC5A JUMPI PUSH2 0xC59 PUSH2 0x8B9 JUMP JUMPDEST JUMPDEST PUSH2 0xC66 DUP11 DUP3 DUP12 ADD PUSH2 0x9CC JUMP JUMPDEST SWAP5 POP POP PUSH1 0x80 DUP9 ADD CALLDATALOAD PUSH8 0xFFFFFFFFFFFFFFFF DUP2 GT ISZERO PUSH2 0xC87 JUMPI PUSH2 0xC86 PUSH2 0x8B9 JUMP JUMPDEST JUMPDEST PUSH2 0xC93 DUP11 DUP3 DUP12 ADD PUSH2 0x9CC JUMP JUMPDEST SWAP4 POP POP PUSH1 0xA0 PUSH2 0xCA4 DUP11 DUP3 DUP12 ADD PUSH2 0xB87 JUMP JUMPDEST SWAP3 POP POP PUSH1 0xC0 PUSH2 0xCB5 DUP11 DUP3 DUP12 ADD PUSH2 0xB87 JUMP JUMPDEST SWAP2 POP POP SWAP3 SWAP6 SWAP9 SWAP2 SWAP5 SWAP8 POP SWAP3 SWAP6 POP JUMP JUMPDEST PUSH0 DUP1 PUSH0 DUP1 PUSH0 PUSH1 0xA0 DUP7 DUP9 SUB SLT ISZERO PUSH2 0xCDD JUMPI PUSH2 0xCDC PUSH2 0x8B5 JUMP JUMPDEST JUMPDEST PUSH0 DUP7 ADD CALLDATALOAD PUSH8 0xFFFFFFFFFFFFFFFF DUP2 GT ISZERO PUSH2 0xCFA JUMPI PUSH2 0xCF9 PUSH2 0x8B9 JUMP JUMPDEST JUMPDEST PUSH2 0xD06 DUP9 DUP3 DUP10 ADD PUSH2 0x9CC JUMP JUMPDEST SWAP6 POP POP PUSH1 0x20 DUP7 ADD CALLDATALOAD PUSH8 0xFFFFFFFFFFFFFFFF DUP2 GT ISZERO PUSH2 0xD27 JUMPI PUSH2 0xD26 PUSH2 0x8B9 JUMP JUMPDEST JUMPDEST PUSH2 0xD33 DUP9 DUP3 DUP10 ADD PUSH2 0x9CC JUMP JUMPDEST SWAP5 POP POP PUSH1 0x40 DUP7 ADD CALLDATALOAD PUSH8 0xFFFFFFFFFFFFFFFF DUP2 GT ISZERO PUSH2 0xD54 JUMPI PUSH2 0xD53 PUSH2 0x8B9 JUMP JUMPDEST JUMPDEST PUSH2 0xD60 DUP9 DUP3 DUP10 ADD PUSH2 0x9CC JUMP JUMPDEST SWAP4 POP POP PUSH1 0x60 DUP7 ADD CALLDATALOAD PUSH8 0xFFFFFFFFFFFFFFFF DUP2 GT ISZERO PUSH2 0xD81 JUMPI PUSH2 0xD80 PUSH2 0x8B9 JUMP JUMPDEST JUMPDEST PUSH2 0xD8D DUP9 DUP3 DUP10 ADD PUSH2 0x9CC JUMP JUMPDEST SWAP3 POP POP PUSH1 0x80 DUP7 ADD CALLDATALOAD PUSH8 0xFFFFFFFFFFFFFFFF DUP2 GT ISZERO PUSH2 0xDAE JUMPI PUSH2 0xDAD PUSH2 0x8B9 JUMP JUMPDEST JUMPDEST PUSH2 0xDBA DUP9 DUP3 DUP10 ADD PUSH2 0x9CC JUMP JUMPDEST SWAP2 POP POP SWAP3 SWAP6 POP SWAP3 SWAP6 SWAP1 SWAP4 POP JUMP JUMPDEST PUSH0 DUP2 SWAP1 POP SWAP3 SWAP2 POP POP JUMP JUMPDEST PUSH0 PUSH2 0xDDB DUP3 PUSH2 0xA40 JUMP JUMPDEST PUSH2 0xDE5 DUP2 DUP6 PUSH2 0xDC7 JUMP JUMPDEST SWAP4 POP PUSH2 0xDF5 DUP2 DUP6 PUSH1 0x20 DUP7 ADD PUSH2 0xA5A JUMP JUMPDEST DUP1 DUP5 ADD SWAP2 POP POP SWAP3 SWAP2 POP POP JUMP JUMPDEST PUSH0 PUSH2 0xE0C DUP3 DUP5 PUSH2 0xDD1 JUMP JUMPDEST SWAP2 POP DUP2 SWAP1 POP SWAP3 SWAP2 POP POP JUMP JUMPDEST PUSH32 0x4C6963656E7365206E6F7420666F756E64000000000000000000000000000000 PUSH0 DUP3 ADD MSTORE POP JUMP JUMPDEST PUSH0 PUSH2 0xE4B PUSH1 0x11 DUP4 PUSH2 0xA4A JUMP JUMPDEST SWAP2 POP PUSH2 0xE56 DUP3 PUSH2 0xE17 JUMP JUMPDEST PUSH1 0x20 DUP3 ADD SWAP1 POP SWAP2 SWAP1 POP JUMP JUMPDEST PUSH0 PUSH1 0x20 DUP3 ADD SWAP1 POP DUP2 DUP2 SUB PUSH0 DUP4 ADD MSTORE PUSH2 0xE78 DUP2 PUSH2 0xE3F JUMP JUMPDEST SWAP1 POP SWAP2 SWAP1 POP JUMP JUMPDEST PUSH32 0x4E487B7100000000000000000000000000000000000000000000000000000000 PUSH0 MSTORE PUSH1 0x11 PUSH1 0x4 MSTORE PUSH1 0x24 PUSH0 REVERT JUMPDEST PUSH0 PUSH2 0xEB6 DUP3 PUSH2 0xAA0 JUMP JUMPDEST SWAP2 POP PUSH2 0xEC1 DUP4 PUSH2 0xAA0 JUMP JUMPDEST SWAP3 POP DUP3 DUP3 SUB SWAP1 POP DUP2 DUP2 GT ISZERO PUSH2 0xED9 JUMPI PUSH2 0xED8 PUSH2 0xE7F JUMP JUMPDEST JUMPDEST SWAP3 SWAP2 POP POP JUMP JUMPDEST PUSH32 0x4C6963656E73652072656E6577616C206E6F742079657420616C6C6F77656400 PUSH0 DUP3 ADD MSTORE POP JUMP JUMPDEST PUSH0 PUSH2 0xF13 PUSH1 0x1F DUP4 PUSH2 0xA4A JUMP JUMPDEST SWAP2 POP PUSH2 0xF1E DUP3 PUSH2 0xEDF JUMP JUMPDEST PUSH1 0x20 DUP3 ADD SWAP1 POP SWAP2 SWAP1 POP JUMP JUMPDEST PUSH0 PUSH1 0x20 DUP3 ADD SWAP1 POP DUP2 DUP2 SUB PUSH0 DUP4 ADD MSTORE PUSH2 0xF40 DUP2 PUSH2 0xF07 JUMP JUMPDEST SWAP1 POP SWAP2 SWAP1 POP JUMP JUMPDEST PUSH0 PUSH2 0xF51 DUP3 PUSH2 0xAA0 JUMP JUMPDEST SWAP2 POP PUSH2 0xF5C DUP4 PUSH2 0xAA0 JUMP JUMPDEST SWAP3 POP DUP3 DUP3 ADD SWAP1 POP DUP1 DUP3 GT ISZERO PUSH2 0xF74 JUMPI PUSH2 0xF73 PUSH2 0xE7F JUMP JUMPDEST JUMPDEST SWAP3 SWAP2 POP POP JUMP JUMPDEST PUSH0 PUSH1 0x40 DUP3 ADD SWAP1 POP DUP2 DUP2 SUB PUSH0 DUP4 ADD MSTORE PUSH2 0xF92 DUP2 DUP6 PUSH2 0xA68 JUMP JUMPDEST SWAP1 POP PUSH2 0xFA1 PUSH1 0x20 DUP4 ADD DUP5 PUSH2 0xAA9 JUMP JUMPDEST SWAP4 SWAP3 POP POP POP JUMP JUMPDEST PUSH32 0x4E487B7100000000000000000000000000000000000000000000000000000000 PUSH0 MSTORE PUSH1 0x22 PUSH1 0x4 MSTORE PUSH1 0x24 PUSH0 REVERT JUMPDEST PUSH0 PUSH1 0x2 DUP3 DIV SWAP1 POP PUSH1 0x1 DUP3 AND DUP1 PUSH2 0xFEC JUMPI PUSH1 0x7F DUP3 AND SWAP2 POP JUMPDEST PUSH1 0x20 DUP3 LT DUP2 SUB PUSH2 0xFFF JUMPI PUSH2 0xFFE PUSH2 0xFA8 JUMP JUMPDEST JUMPDEST POP SWAP2 SWAP1 POP JUMP JUMPDEST PUSH32 0x4C6963656E736520616C72656164792065786973747320666F72207468697320 PUSH0 DUP3 ADD MSTORE PUSH32 0x43726564656E7469616C20494400000000000000000000000000000000000000 PUSH1 0x20 DUP3 ADD MSTORE POP JUMP JUMPDEST PUSH0 PUSH2 0x105F PUSH1 0x2D DUP4 PUSH2 0xA4A JUMP JUMPDEST SWAP2 POP PUSH2 0x106A DUP3 PUSH2 0x1005 JUMP JUMPDEST PUSH1 0x40 DUP3 ADD SWAP1 POP SWAP2 SWAP1 POP JUMP JUMPDEST PUSH0 PUSH1 0x20 DUP3 ADD SWAP1 POP DUP2 DUP2 SUB PUSH0 DUP4 ADD MSTORE PUSH2 0x108C DUP2 PUSH2 0x1053 JUMP JUMPDEST SWAP1 POP SWAP2 SWAP1 POP JUMP JUMPDEST PUSH0 DUP2 SWAP1 POP DUP2 PUSH0 MSTORE PUSH1 0x20 PUSH0 KECCAK256 SWAP1 POP SWAP2 SWAP1 POP JUMP JUMPDEST PUSH0 PUSH1 0x20 PUSH1 0x1F DUP4 ADD DIV SWAP1 POP SWAP2 SWAP1 POP JUMP JUMPDEST PUSH0 DUP3 DUP3 SHL SWAP1 POP SWAP3 SWAP2 POP POP JUMP JUMPDEST PUSH0 PUSH1 0x8 DUP4 MUL PUSH2 0x10EF PUSH32 0xFFFFFFFFFFFFFFFFFFFFFFFFFFFFFFFFFFFFFFFFFFFFFFFFFFFFFFFFFFFFFFFF DUP3 PUSH2 0x10B4 JUMP JUMPDEST PUSH2 0x10F9 DUP7 DUP4 PUSH2 0x10B4 JUMP JUMPDEST SWAP6 POP DUP1 NOT DUP5 AND SWAP4 POP DUP1 DUP7 AND DUP5 OR SWAP3 POP POP POP SWAP4 SWAP3 POP POP POP JUMP JUMPDEST PUSH0 DUP2 SWAP1 POP SWAP2 SWAP1 POP JUMP JUMPDEST PUSH0 PUSH2 0x1134 PUSH2 0x112F PUSH2 0x112A DUP5 PUSH2 0xAA0 JUMP JUMPDEST PUSH2 0x1111 JUMP JUMPDEST PUSH2 0xAA0 JUMP JUMPDEST SWAP1 POP SWAP2 SWAP1 POP JUMP JUMPDEST PUSH0 DUP2 SWAP1 POP SWAP2 SWAP1 POP JUMP JUMPDEST PUSH2 0x114D DUP4 PUSH2 0x111A JUMP JUMPDEST PUSH2 0x1161 PUSH2 0x1159 DUP3 PUSH2 0x113B JUMP JUMPDEST DUP5 DUP5 SLOAD PUSH2 0x10C0 JUMP JUMPDEST DUP3 SSTORE POP POP POP POP JUMP JUMPDEST PUSH0 SWAP1 JUMP JUMPDEST PUSH2 0x1175 PUSH2 0x1169 JUMP JUMPDEST PUSH2 0x1180 DUP2 DUP5 DUP5 PUSH2 0x1144 JUMP JUMPDEST POP POP POP JUMP JUMPDEST JUMPDEST DUP2 DUP2 LT ISZERO PUSH2 0x11A3 JUMPI PUSH2 0x1198 PUSH0 DUP3 PUSH2 0x116D JUMP JUMPDEST PUSH1 0x1 DUP2 ADD SWAP1 POP PUSH2 0x1186 JUMP JUMPDEST POP POP JUMP JUMPDEST PUSH1 0x1F DUP3 GT ISZERO PUSH2 0x11E8 JUMPI PUSH2 0x11B9 DUP2 PUSH2 0x1093 JUMP JUMPDEST PUSH2 0x11C2 DUP5 PUSH2 0x10A5 JUMP JUMPDEST DUP2 ADD PUSH1 0x20 DUP6 LT ISZERO PUSH2 0x11D1 JUMPI DUP2 SWAP1 POP JUMPDEST PUSH2 0x11E5 PUSH2 0x11DD DUP6 PUSH2 0x10A5 JUMP JUMPDEST DUP4 ADD DUP3 PUSH2 0x1185 JUMP JUMPDEST POP POP JUMPDEST POP POP POP JUMP JUMPDEST PUSH0 DUP3 DUP3 SHR SWAP1 POP SWAP3 SWAP2 POP POP JUMP JUMPDEST PUSH0 PUSH2 0x1208 PUSH0 NOT DUP5 PUSH1 0x8 MUL PUSH2 0x11ED JUMP JUMPDEST NOT DUP1 DUP4 AND SWAP2 POP POP SWAP3 SWAP2 POP POP JUMP JUMPDEST PUSH0 PUSH2 0x1220 DUP4 DUP4 PUSH2 0x11F9 JUMP JUMPDEST SWAP2 POP DUP3 PUSH1 0x2 MUL DUP3 OR SWAP1 POP SWAP3 SWAP2 POP POP JUMP JUMPDEST PUSH2 0x1239 DUP3 PUSH2 0xA40 JUMP JUMPDEST PUSH8 0xFFFFFFFFFFFFFFFF DUP2 GT ISZERO PUSH2 0x1252 JUMPI PUSH2 0x1251 PUSH2 0x8D5 JUMP JUMPDEST JUMPDEST PUSH2 0x125C DUP3 SLOAD PUSH2 0xFD5 JUMP JUMPDEST PUSH2 0x1267 DUP3 DUP3 DUP6 PUSH2 0x11A7 JUMP JUMPDEST PUSH0 PUSH1 0x20 SWAP1 POP PUSH1 0x1F DUP4 GT PUSH1 0x1 DUP2 EQ PUSH2 0x1298 JUMPI PUSH0 DUP5 ISZERO PUSH2 0x1286 JUMPI DUP3 DUP8 ADD MLOAD SWAP1 POP JUMPDEST PUSH2 0x1290 DUP6 DUP3 PUSH2 0x1215 JUMP JUMPDEST DUP7 SSTORE POP PUSH2 0x12F7 JUMP JUMPDEST PUSH1 0x1F NOT DUP5 AND PUSH2 0x12A6 DUP7 PUSH2 0x1093 JUMP JUMPDEST PUSH0 JUMPDEST DUP3 DUP2 LT ISZERO PUSH2 0x12CD JUMPI DUP5 DUP10 ADD MLOAD DUP3 SSTORE PUSH1 0x1 DUP3 ADD SWAP2 POP PUSH1 0x20 DUP6 ADD SWAP5 POP PUSH1 0x20 DUP2 ADD SWAP1 POP PUSH2 0x12A8 JUMP JUMPDEST DUP7 DUP4 LT ISZERO PUSH2 0x12EA JUMPI DUP5 DUP10 ADD MLOAD PUSH2 0x12E6 PUSH1 0x1F DUP10 AND DUP3 PUSH2 0x11F9 JUMP JUMPDEST DUP4 SSTORE POP JUMPDEST PUSH1 0x1 PUSH1 0x2 DUP9 MUL ADD DUP9 SSTORE POP POP POP JUMPDEST POP POP POP POP POP POP JUMP JUMPDEST PUSH0 PUSH1 0xC0 DUP3 ADD SWAP1 POP DUP2 DUP2 SUB PUSH0 DUP4 ADD MSTORE PUSH2 0x1317 DUP2 DUP10 PUSH2 0xA68 JUMP JUMPDEST SWAP1 POP DUP2 DUP2 SUB PUSH1 0x20 DUP4 ADD MSTORE PUSH2 0x132B DUP2 DUP9 PUSH2 0xA68 JUMP JUMPDEST SWAP1 POP DUP2 DUP2 SUB PUSH1 0x40 DUP4 ADD MSTORE PUSH2 0x133F DUP2 DUP8 PUSH2 0xA68 JUMP JUMPDEST SWAP1 POP DUP2 DUP2 SUB PUSH1 0x60 DUP4 ADD MSTORE PUSH2 0x1353 DUP2 DUP7 PUSH2 0xA68 JUMP JUMPDEST SWAP1 POP PUSH2 0x1362 PUSH1 0x80 DUP4 ADD DUP6 PUSH2 0xAA9 JUMP JUMPDEST PUSH2 0x136F PUSH1 0xA0 DUP4 ADD DUP5 PUSH2 0xAA9 JUMP JUMPDEST SWAP8 SWAP7 POP POP POP POP POP POP POP JUMP INVALID LOG2 PUSH5 0x6970667358 0x22 SLT KECCAK256 0xD3 PUSH8 0xDC4AE793B0682B69 0xC8 0x25 ADD SWAP6 0xC5 JUMPDEST 0xD7 PUSH28 0x1FC97CF7EDCC85680B1D53B94AD064736F6C634300081A0033000000 "
		},
		"gasEstimates": {
			"creation": {
				"codeDepositCost": "1008000",
				"executionCost": "1045",
				"totalCost": "1009045"
			},
			"external": {
				"issueLicense(string,string,string,string,string)": "infinite",
				"issueLicenseWithCustomDates(string,string,string,string,string,uint256,uint256)": "infinite",
				"renewLicense(string)": "infinite",
				"validateLicense(string)": "infinite"
			}
		},
		"methodIdentifiers": {
			"issueLicense(string,string,string,string,string)": "ff4dcdc9",
			"issueLicenseWithCustomDates(string,string,string,string,string,uint256,uint256)": "dcdc3d7b",
			"renewLicense(string)": "6ac9c919",
			"validateLicense(string)": "a4e218fd"
		}
	},
	"abi": [
		{
			"anonymous": false,
			"inputs": [
				{
					"indexed": false,
					"internalType": "string",
					"name": "credentialID",
					"type": "string"
				},
				{
					"indexed": false,
					"internalType": "string",
					"name": "firstName",
					"type": "string"
				},
				{
					"indexed": false,
					"internalType": "string",
					"name": "lastName",
					"type": "string"
				},
				{
					"indexed": false,
					"internalType": "string",
					"name": "nationality",
					"type": "string"
				},
				{
					"indexed": false,
					"internalType": "uint256",
					"name": "issueDate",
					"type": "uint256"
				},
				{
					"indexed": false,
					"internalType": "uint256",
					"name": "expiryDate",
					"type": "uint256"
				}
			],
			"name": "LicenseIssued",
			"type": "event"
		},
		{
			"anonymous": false,
			"inputs": [
				{
					"indexed": false,
					"internalType": "string",
					"name": "credentialID",
					"type": "string"
				},
				{
					"indexed": false,
					"internalType": "uint256",
					"name": "newExpiryDate",
					"type": "uint256"
				}
			],
			"name": "LicenseRenewed",
			"type": "event"
		},
		{
			"inputs": [
				{
					"internalType": "string",
					"name": "credentialID",
					"type": "string"
				},
				{
					"internalType": "string",
					"name": "firstName",
					"type": "string"
				},
				{
					"internalType": "string",
					"name": "lastName",
					"type": "string"
				},
				{
					"internalType": "string",
					"name": "nationality",
					"type": "string"
				},
				{
					"internalType": "string",
					"name": "dateOfBirth",
					"type": "string"
				}
			],
			"name": "issueLicense",
			"outputs": [],
			"stateMutability": "nonpayable",
			"type": "function"
		},
		{
			"inputs": [
				{
					"internalType": "string",
					"name": "credentialID",
					"type": "string"
				},
				{
					"internalType": "string",
					"name": "firstName",
					"type": "string"
				},
				{
					"internalType": "string",
					"name": "lastName",
					"type": "string"
				},
				{
					"internalType": "string",
					"name": "nationality",
					"type": "string"
				},
				{
					"internalType": "string",
					"name": "dateOfBirth",
					"type": "string"
				},
				{
					"internalType": "uint256",
					"name": "customIssueDate",
					"type": "uint256"
				},
				{
					"internalType": "uint256",
					"name": "customExpiryDate",
					"type": "uint256"
				}
			],
			"name": "issueLicenseWithCustomDates",
			"outputs": [],
			"stateMutability": "nonpayable",
			"type": "function"
		},
		{
			"inputs": [
				{
					"internalType": "string",
					"name": "credentialID",
					"type": "string"
				}
			],
			"name": "renewLicense",
			"outputs": [],
			"stateMutability": "nonpayable",
			"type": "function"
		},
		{
			"inputs": [
				{
					"internalType": "string",
					"name": "credentialID",
					"type": "string"
				}
			],
			"name": "validateLicense",
			"outputs": [
				{
					"internalType": "string",
					"name": "firstName",
					"type": "string"
				},
				{
					"internalType": "string",
					"name": "lastName",
					"type": "string"
				},
				{
					"internalType": "string",
					"name": "nationality",
					"type": "string"
				},
				{
					"internalType": "string",
					"name": "dateOfBirth",
					"type": "string"
				},
				{
					"internalType": "string",
					"name": "id",
					"type": "string"
				},
				{
					"internalType": "uint256",
					"name": "issueDate",
					"type": "uint256"
				},
				{
					"internalType": "uint256",
					"name": "expiryDate",
					"type": "uint256"
				},
				{
					"internalType": "bool",
					"name": "isValid",
					"type": "bool"
				}
			],
			"stateMutability": "view",
			"type": "function"
		}
	]
}